{
  "_format": "hh-sol-artifact-1",
  "contractName": "stageSBT",
  "sourceName": "contracts/StageSBT.sol",
  "abi": [
    {
      "inputs": [],
      "stateMutability": "nonpayable",
      "type": "constructor"
    },
    {
      "anonymous": false,
      "inputs": [
        {
          "indexed": true,
          "internalType": "address",
          "name": "owner",
          "type": "address"
        },
        {
          "indexed": true,
          "internalType": "address",
          "name": "approved",
          "type": "address"
        },
        {
          "indexed": true,
          "internalType": "uint256",
          "name": "tokenId",
          "type": "uint256"
        }
      ],
      "name": "Approval",
      "type": "event"
    },
    {
      "anonymous": false,
      "inputs": [
        {
          "indexed": true,
          "internalType": "address",
          "name": "owner",
          "type": "address"
        },
        {
          "indexed": true,
          "internalType": "address",
          "name": "operator",
          "type": "address"
        },
        {
          "indexed": false,
          "internalType": "bool",
          "name": "approved",
          "type": "bool"
        }
      ],
      "name": "ApprovalForAll",
      "type": "event"
    },
    {
      "anonymous": false,
      "inputs": [
        {
          "indexed": false,
          "internalType": "uint256",
          "name": "_fromTokenId",
          "type": "uint256"
        },
        {
          "indexed": false,
          "internalType": "uint256",
          "name": "_toTokenId",
          "type": "uint256"
        }
      ],
      "name": "BatchMetadataUpdate",
      "type": "event"
    },
    {
      "anonymous": false,
      "inputs": [
        {
          "indexed": false,
          "internalType": "uint256",
          "name": "_tokenId",
          "type": "uint256"
        }
      ],
      "name": "MetadataUpdate",
      "type": "event"
    },
    {
      "anonymous": false,
      "inputs": [
        {
          "indexed": true,
          "internalType": "address",
          "name": "previousOwner",
          "type": "address"
        },
        {
          "indexed": true,
          "internalType": "address",
          "name": "newOwner",
          "type": "address"
        }
      ],
      "name": "OwnershipTransferred",
      "type": "event"
    },
    {
      "anonymous": false,
      "inputs": [
        {
          "indexed": true,
          "internalType": "address",
          "name": "from",
          "type": "address"
        },
        {
          "indexed": true,
          "internalType": "address",
          "name": "to",
          "type": "address"
        },
        {
          "indexed": true,
          "internalType": "uint256",
          "name": "tokenId",
          "type": "uint256"
        }
      ],
      "name": "Transfer",
      "type": "event"
    },
    {
      "inputs": [
        {
          "internalType": "address",
          "name": "to",
          "type": "address"
        },
        {
          "internalType": "uint256",
          "name": "tokenId",
          "type": "uint256"
        }
      ],
      "name": "approve",
      "outputs": [],
      "stateMutability": "nonpayable",
      "type": "function"
    },
    {
      "inputs": [
        {
          "internalType": "address",
          "name": "owner",
          "type": "address"
        }
      ],
      "name": "balanceOf",
      "outputs": [
        {
          "internalType": "uint256",
          "name": "",
          "type": "uint256"
        }
      ],
      "stateMutability": "view",
      "type": "function"
    },
    {
      "inputs": [
        {
          "internalType": "uint256",
          "name": "tokenId",
          "type": "uint256"
        }
      ],
      "name": "getApproved",
      "outputs": [
        {
          "internalType": "address",
          "name": "",
          "type": "address"
        }
      ],
      "stateMutability": "view",
      "type": "function"
    },
    {
      "inputs": [
        {
          "internalType": "address",
          "name": "owner",
          "type": "address"
        },
        {
          "internalType": "address",
          "name": "operator",
          "type": "address"
        }
      ],
      "name": "isApprovedForAll",
      "outputs": [
        {
          "internalType": "bool",
          "name": "",
          "type": "bool"
        }
      ],
      "stateMutability": "view",
      "type": "function"
    },
    {
      "inputs": [],
      "name": "name",
      "outputs": [
        {
          "internalType": "string",
          "name": "",
          "type": "string"
        }
      ],
      "stateMutability": "view",
      "type": "function"
    },
    {
      "inputs": [],
      "name": "owner",
      "outputs": [
        {
          "internalType": "address",
          "name": "",
          "type": "address"
        }
      ],
      "stateMutability": "view",
      "type": "function"
    },
    {
      "inputs": [
        {
          "internalType": "uint256",
          "name": "tokenId",
          "type": "uint256"
        }
      ],
      "name": "ownerOf",
      "outputs": [
        {
          "internalType": "address",
          "name": "",
          "type": "address"
        }
      ],
      "stateMutability": "view",
      "type": "function"
    },
    {
      "inputs": [],
      "name": "renounceOwnership",
      "outputs": [],
      "stateMutability": "nonpayable",
      "type": "function"
    },
    {
      "inputs": [
        {
          "internalType": "address",
          "name": "to",
          "type": "address"
        },
        {
          "internalType": "uint256",
          "name": "tokenId",
          "type": "uint256"
        }
      ],
      "name": "safeMint",
      "outputs": [],
      "stateMutability": "nonpayable",
      "type": "function"
    },
    {
      "inputs": [
        {
          "internalType": "address",
          "name": "from",
          "type": "address"
        },
        {
          "internalType": "address",
          "name": "to",
          "type": "address"
        },
        {
          "internalType": "uint256",
          "name": "tokenId",
          "type": "uint256"
        }
      ],
      "name": "safeTransferFrom",
      "outputs": [],
      "stateMutability": "nonpayable",
      "type": "function"
    },
    {
      "inputs": [
        {
          "internalType": "address",
          "name": "from",
          "type": "address"
        },
        {
          "internalType": "address",
          "name": "to",
          "type": "address"
        },
        {
          "internalType": "uint256",
          "name": "tokenId",
          "type": "uint256"
        },
        {
          "internalType": "bytes",
          "name": "data",
          "type": "bytes"
        }
      ],
      "name": "safeTransferFrom",
      "outputs": [],
      "stateMutability": "nonpayable",
      "type": "function"
    },
    {
      "inputs": [
        {
          "internalType": "address",
          "name": "operator",
          "type": "address"
        },
        {
          "internalType": "bool",
          "name": "approved",
          "type": "bool"
        }
      ],
      "name": "setApprovalForAll",
      "outputs": [],
      "stateMutability": "nonpayable",
      "type": "function"
    },
    {
      "inputs": [
        {
          "internalType": "bytes4",
          "name": "interfaceId",
          "type": "bytes4"
        }
      ],
      "name": "supportsInterface",
      "outputs": [
        {
          "internalType": "bool",
          "name": "",
          "type": "bool"
        }
      ],
      "stateMutability": "view",
      "type": "function"
    },
    {
      "inputs": [],
      "name": "symbol",
      "outputs": [
        {
          "internalType": "string",
          "name": "",
          "type": "string"
        }
      ],
      "stateMutability": "view",
      "type": "function"
    },
    {
      "inputs": [
        {
          "internalType": "uint256",
          "name": "index",
          "type": "uint256"
        }
      ],
      "name": "tokenByIndex",
      "outputs": [
        {
          "internalType": "uint256",
          "name": "",
          "type": "uint256"
        }
      ],
      "stateMutability": "view",
      "type": "function"
    },
    {
      "inputs": [
        {
          "internalType": "address",
          "name": "owner",
          "type": "address"
        },
        {
          "internalType": "uint256",
          "name": "index",
          "type": "uint256"
        }
      ],
      "name": "tokenOfOwnerByIndex",
      "outputs": [
        {
          "internalType": "uint256",
          "name": "",
          "type": "uint256"
        }
      ],
      "stateMutability": "view",
      "type": "function"
    },
    {
      "inputs": [
        {
          "internalType": "uint256",
          "name": "tokenId",
          "type": "uint256"
        }
      ],
      "name": "tokenURI",
      "outputs": [
        {
          "internalType": "string",
          "name": "",
          "type": "string"
        }
      ],
      "stateMutability": "view",
      "type": "function"
    },
    {
      "inputs": [
        {
          "internalType": "address",
          "name": "owner",
          "type": "address"
        }
      ],
      "name": "tokensOfOwner",
      "outputs": [
        {
          "internalType": "uint256[]",
          "name": "",
          "type": "uint256[]"
        }
      ],
      "stateMutability": "view",
      "type": "function"
    },
    {
      "inputs": [],
      "name": "totalSupply",
      "outputs": [
        {
          "internalType": "uint256",
          "name": "",
          "type": "uint256"
        }
      ],
      "stateMutability": "view",
      "type": "function"
    },
    {
      "inputs": [
        {
          "internalType": "address",
          "name": "from",
          "type": "address"
        },
        {
          "internalType": "address",
          "name": "to",
          "type": "address"
        },
        {
          "internalType": "uint256",
          "name": "tokenId",
          "type": "uint256"
        }
      ],
      "name": "transferFrom",
      "outputs": [],
      "stateMutability": "nonpayable",
      "type": "function"
    },
    {
      "inputs": [
        {
          "internalType": "address",
          "name": "newOwner",
          "type": "address"
        }
      ],
      "name": "transferOwnership",
      "outputs": [],
      "stateMutability": "nonpayable",
      "type": "function"
    },
    {
      "inputs": [
        {
          "internalType": "uint256",
          "name": "stage",
          "type": "uint256"
        }
      ],
      "name": "userMint",
      "outputs": [],
      "stateMutability": "nonpayable",
      "type": "function"
    }
  ],
  "bytecode": "0x608060405234801561001057600080fd5b506040518060400160405280601081526020017f436869696b6f4578616d706c65534254000000000000000000000000000000008152506040518060400160405280600381526020017f5342540000000000000000000000000000000000000000000000000000000000815250816000908161008c91906103de565b50806001908161009c91906103de565b5050506100bb6100b06100c060201b60201c565b6100c860201b60201c565b6104b0565b600033905090565b6000600b60009054906101000a900473ffffffffffffffffffffffffffffffffffffffff16905081600b60006101000a81548173ffffffffffffffffffffffffffffffffffffffff021916908373ffffffffffffffffffffffffffffffffffffffff1602179055508173ffffffffffffffffffffffffffffffffffffffff168173ffffffffffffffffffffffffffffffffffffffff167f8be0079c531659141344cd1fd0a4f28419497f9722a3daafe3b4186f6b6457e060405160405180910390a35050565b600081519050919050565b7f4e487b7100000000000000000000000000000000000000000000000000000000600052604160045260246000fd5b7f4e487b7100000000000000000000000000000000000000000000000000000000600052602260045260246000fd5b6000600282049050600182168061020f57607f821691505b602082108103610222576102216101c8565b5b50919050565b60008190508160005260206000209050919050565b60006020601f8301049050919050565b600082821b905092915050565b60006008830261028a7fffffffffffffffffffffffffffffffffffffffffffffffffffffffffffffffff8261024d565b610294868361024d565b95508019841693508086168417925050509392505050565b6000819050919050565b6000819050919050565b60006102db6102d66102d1846102ac565b6102b6565b6102ac565b9050919050565b6000819050919050565b6102f5836102c0565b610309610301826102e2565b84845461025a565b825550505050565b600090565b61031e610311565b6103298184846102ec565b505050565b5b8181101561034d57610342600082610316565b60018101905061032f565b5050565b601f8211156103925761036381610228565b61036c8461023d565b8101602085101561037b578190505b61038f6103878561023d565b83018261032e565b50505b505050565b600082821c905092915050565b60006103b560001984600802610397565b1980831691505092915050565b60006103ce83836103a4565b9150826002028217905092915050565b6103e78261018e565b67ffffffffffffffff811115610400576103ff610199565b5b61040a82546101f7565b610415828285610351565b600060209050601f8311600181146104485760008415610436578287015190505b61044085826103c2565b8655506104a8565b601f19841661045686610228565b60005b8281101561047e57848901518255600182019150602085019450602081019050610459565b8683101561049b5784890151610497601f8916826103a4565b8355505b6001600288020188555050505b505050505050565b613f40806104bf6000396000f3fe608060405234801561001057600080fd5b50600436106101425760003560e01c8063715018a6116100b8578063a14481941161007c578063a144819414610389578063a22cb465146103a5578063b88d4fde146103c1578063c87b56dd146103dd578063e985e9c51461040d578063f2fde38b1461043d57610142565b8063715018a6146102f75780638462151c146103015780638b3dcabb146103315780638da5cb5b1461034d57806395d89b411461036b57610142565b806323b872dd1161010a57806323b872dd146101ff5780632f745c591461021b57806342842e0e1461024b5780634f6ccce7146102675780636352211e1461029757806370a08231146102c757610142565b806301ffc9a71461014757806306fdde0314610177578063081812fc14610195578063095ea7b3146101c557806318160ddd146101e1575b600080fd5b610161600480360381019061015c91906127a1565b610459565b60405161016e91906127e9565b60405180910390f35b61017f61046b565b60405161018c9190612894565b60405180910390f35b6101af60048036038101906101aa91906128ec565b6104fd565b6040516101bc919061295a565b60405180910390f35b6101df60048036038101906101da91906129a1565b610543565b005b6101e961065a565b6040516101f691906129f0565b60405180910390f35b61021960048036038101906102149190612a0b565b610667565b005b610235600480360381019061023091906129a1565b6106c7565b60405161024291906129f0565b60405180910390f35b61026560048036038101906102609190612a0b565b61076c565b005b610281600480360381019061027c91906128ec565b61078c565b60405161028e91906129f0565b60405180910390f35b6102b160048036038101906102ac91906128ec565b6107fd565b6040516102be919061295a565b60405180910390f35b6102e160048036038101906102dc9190612a5e565b610883565b6040516102ee91906129f0565b60405180910390f35b6102ff61093a565b005b61031b60048036038101906103169190612a5e565b61094e565b6040516103289190612b49565b60405180910390f35b61034b600480360381019061034691906128ec565b6109f6565b005b610355610b4d565b604051610362919061295a565b60405180910390f35b610373610b77565b6040516103809190612894565b60405180910390f35b6103a3600480360381019061039e91906129a1565b610c09565b005b6103bf60048036038101906103ba9190612b97565b610c31565b005b6103db60048036038101906103d69190612d0c565b610c47565b005b6103f760048036038101906103f291906128ec565b610ca9565b6040516104049190612894565b60405180910390f35b61042760048036038101906104229190612d8f565b610cbb565b60405161043491906127e9565b60405180910390f35b61045760048036038101906104529190612a5e565b610d4f565b005b600061046482610dd2565b9050919050565b60606000805461047a90612dfe565b80601f01602080910402602001604051908101604052809291908181526020018280546104a690612dfe565b80156104f35780601f106104c8576101008083540402835291602001916104f3565b820191906000526020600020905b8154815290600101906020018083116104d657829003601f168201915b5050505050905090565b600061050882610e4c565b6004600083815260200190815260200160002060009054906101000a900473ffffffffffffffffffffffffffffffffffffffff169050919050565b600061054e826107fd565b90508073ffffffffffffffffffffffffffffffffffffffff168373ffffffffffffffffffffffffffffffffffffffff16036105be576040517f08c379a00000000000000000000000000000000000000000000000000000000081526004016105b590612ea1565b60405180910390fd5b8073ffffffffffffffffffffffffffffffffffffffff166105dd610e97565b73ffffffffffffffffffffffffffffffffffffffff16148061060c575061060b81610606610e97565b610cbb565b5b61064b576040517f08c379a000000000000000000000000000000000000000000000000000000000815260040161064290612f33565b60405180910390fd5b6106558383610e9f565b505050565b6000600980549050905090565b610678610672610e97565b82610f58565b6106b7576040517f08c379a00000000000000000000000000000000000000000000000000000000081526004016106ae90612fc5565b60405180910390fd5b6106c2838383610fed565b505050565b60006106d283610883565b8210610713576040517f08c379a000000000000000000000000000000000000000000000000000000000815260040161070a90613057565b60405180910390fd5b600760008473ffffffffffffffffffffffffffffffffffffffff1673ffffffffffffffffffffffffffffffffffffffff168152602001908152602001600020600083815260200190815260200160002054905092915050565b61078783838360405180602001604052806000815250610c47565b505050565b600061079661065a565b82106107d7576040517f08c379a00000000000000000000000000000000000000000000000000000000081526004016107ce906130e9565b60405180910390fd5b600982815481106107eb576107ea613109565b5b90600052602060002001549050919050565b600080610809836112e6565b9050600073ffffffffffffffffffffffffffffffffffffffff168173ffffffffffffffffffffffffffffffffffffffff160361087a576040517f08c379a000000000000000000000000000000000000000000000000000000000815260040161087190613184565b60405180910390fd5b80915050919050565b60008073ffffffffffffffffffffffffffffffffffffffff168273ffffffffffffffffffffffffffffffffffffffff16036108f3576040517f08c379a00000000000000000000000000000000000000000000000000000000081526004016108ea90613216565b60405180910390fd5b600360008373ffffffffffffffffffffffffffffffffffffffff1673ffffffffffffffffffffffffffffffffffffffff168152602001908152602001600020549050919050565b610942611323565b61094c60006113a1565b565b6060600061095b83610883565b905060008167ffffffffffffffff81111561097957610978612be1565b5b6040519080825280602002602001820160405280156109a75781602001602082028036833780820191505090505b50905060005b828110156109eb576109bf85826106c7565b8282815181106109d2576109d1613109565b5b60200260200101818152505080806001019150506109ad565b508092505050919050565b600c60003373ffffffffffffffffffffffffffffffffffffffff1673ffffffffffffffffffffffffffffffffffffffff168152602001908152602001600020600082815260200190815260200160002060009054906101000a900460ff1615610a94576040517f08c379a0000000000000000000000000000000000000000000000000000000008152600401610a8b90613282565b60405180910390fd5b6001600c60003373ffffffffffffffffffffffffffffffffffffffff1673ffffffffffffffffffffffffffffffffffffffff168152602001908152602001600020600083815260200190815260200160002060006101000a81548160ff02191690831515021790555060003382604051602001610b1292919061330b565b6040516020818303038152906040528051906020012060001c9050610b373382611467565b610b4981610b4484611485565b6114b6565b5050565b6000600b60009054906101000a900473ffffffffffffffffffffffffffffffffffffffff16905090565b606060018054610b8690612dfe565b80601f0160208091040260200160405190810160405280929190818152602001828054610bb290612dfe565b8015610bff5780601f10610bd457610100808354040283529160200191610bff565b820191906000526020600020905b815481529060010190602001808311610be257829003601f168201915b5050505050905090565b610c11611323565b610c1b8282611467565b610c2d81610c2883611485565b6114b6565b5050565b610c43610c3c610e97565b838361155a565b5050565b610c58610c52610e97565b83610f58565b610c97576040517f08c379a0000000000000000000000000000000000000000000000000000000008152600401610c8e90612fc5565b60405180910390fd5b610ca3848484846116c6565b50505050565b6060610cb482611722565b9050919050565b6000600560008473ffffffffffffffffffffffffffffffffffffffff1673ffffffffffffffffffffffffffffffffffffffff16815260200190815260200160002060008373ffffffffffffffffffffffffffffffffffffffff1673ffffffffffffffffffffffffffffffffffffffff16815260200190815260200160002060009054906101000a900460ff16905092915050565b610d57611323565b600073ffffffffffffffffffffffffffffffffffffffff168173ffffffffffffffffffffffffffffffffffffffff1603610dc6576040517f08c379a0000000000000000000000000000000000000000000000000000000008152600401610dbd906133a9565b60405180910390fd5b610dcf816113a1565b50565b60007f780e9d63000000000000000000000000000000000000000000000000000000007bffffffffffffffffffffffffffffffffffffffffffffffffffffffff1916827bffffffffffffffffffffffffffffffffffffffffffffffffffffffff19161480610e455750610e4482611834565b5b9050919050565b610e5581611895565b610e94576040517f08c379a0000000000000000000000000000000000000000000000000000000008152600401610e8b90613184565b60405180910390fd5b50565b600033905090565b816004600083815260200190815260200160002060006101000a81548173ffffffffffffffffffffffffffffffffffffffff021916908373ffffffffffffffffffffffffffffffffffffffff160217905550808273ffffffffffffffffffffffffffffffffffffffff16610f12836107fd565b73ffffffffffffffffffffffffffffffffffffffff167f8c5be1e5ebec7d5bd14f71427d1e84f3dd0314c0f7b2291e5b200ac8c7c3b92560405160405180910390a45050565b600080610f64836107fd565b90508073ffffffffffffffffffffffffffffffffffffffff168473ffffffffffffffffffffffffffffffffffffffff161480610fa65750610fa58185610cbb565b5b80610fe457508373ffffffffffffffffffffffffffffffffffffffff16610fcc846104fd565b73ffffffffffffffffffffffffffffffffffffffff16145b91505092915050565b8273ffffffffffffffffffffffffffffffffffffffff1661100d826107fd565b73ffffffffffffffffffffffffffffffffffffffff1614611063576040517f08c379a000000000000000000000000000000000000000000000000000000000815260040161105a9061343b565b60405180910390fd5b600073ffffffffffffffffffffffffffffffffffffffff168273ffffffffffffffffffffffffffffffffffffffff16036110d2576040517f08c379a00000000000000000000000000000000000000000000000000000000081526004016110c9906134cd565b60405180910390fd5b6110df83838360016118d6565b8273ffffffffffffffffffffffffffffffffffffffff166110ff826107fd565b73ffffffffffffffffffffffffffffffffffffffff1614611155576040517f08c379a000000000000000000000000000000000000000000000000000000000815260040161114c9061343b565b60405180910390fd5b6004600082815260200190815260200160002060006101000a81549073ffffffffffffffffffffffffffffffffffffffff02191690556001600360008573ffffffffffffffffffffffffffffffffffffffff1673ffffffffffffffffffffffffffffffffffffffff168152602001908152602001600020600082825403925050819055506001600360008473ffffffffffffffffffffffffffffffffffffffff1673ffffffffffffffffffffffffffffffffffffffff16815260200190815260200160002060008282540192505081905550816002600083815260200190815260200160002060006101000a81548173ffffffffffffffffffffffffffffffffffffffff021916908373ffffffffffffffffffffffffffffffffffffffff160217905550808273ffffffffffffffffffffffffffffffffffffffff168473ffffffffffffffffffffffffffffffffffffffff167fddf252ad1be2c89b69c2b068fc378daa952ba7f163c4a11628f55a4df523b3ef60405160405180910390a46112e18383836001611957565b505050565b60006002600083815260200190815260200160002060009054906101000a900473ffffffffffffffffffffffffffffffffffffffff169050919050565b61132b610e97565b73ffffffffffffffffffffffffffffffffffffffff16611349610b4d565b73ffffffffffffffffffffffffffffffffffffffff161461139f576040517f08c379a000000000000000000000000000000000000000000000000000000000815260040161139690613539565b60405180910390fd5b565b6000600b60009054906101000a900473ffffffffffffffffffffffffffffffffffffffff16905081600b60006101000a81548173ffffffffffffffffffffffffffffffffffffffff021916908373ffffffffffffffffffffffffffffffffffffffff1602179055508173ffffffffffffffffffffffffffffffffffffffff168173ffffffffffffffffffffffffffffffffffffffff167f8be0079c531659141344cd1fd0a4f28419497f9722a3daafe3b4186f6b6457e060405160405180910390a35050565b61148182826040518060200160405280600081525061195d565b5050565b6060611490826119b8565b6040516020016114a09190613653565b6040516020818303038152906040529050919050565b6114bf82611895565b6114fe576040517f08c379a00000000000000000000000000000000000000000000000000000000081526004016114f5906136f2565b60405180910390fd5b8060066000848152602001908152602001600020908161151e91906138be565b507ff8e1a15aba9398e019f0b49df1a4fde98ee17ae345cb5f6b5e2c27f5033e8ce78260405161154e91906129f0565b60405180910390a15050565b8173ffffffffffffffffffffffffffffffffffffffff168373ffffffffffffffffffffffffffffffffffffffff16036115c8576040517f08c379a00000000000000000000000000000000000000000000000000000000081526004016115bf906139dc565b60405180910390fd5b80600560008573ffffffffffffffffffffffffffffffffffffffff1673ffffffffffffffffffffffffffffffffffffffff16815260200190815260200160002060008473ffffffffffffffffffffffffffffffffffffffff1673ffffffffffffffffffffffffffffffffffffffff16815260200190815260200160002060006101000a81548160ff0219169083151502179055508173ffffffffffffffffffffffffffffffffffffffff168373ffffffffffffffffffffffffffffffffffffffff167f17307eab39ab6107e8899845ad3d59bd9653f200f220920489ca2b5937696c31836040516116b991906127e9565b60405180910390a3505050565b6116d1848484610fed565b6116dd84848484611b18565b61171c576040517f08c379a000000000000000000000000000000000000000000000000000000000815260040161171390613a6e565b60405180910390fd5b50505050565b606061172d82610e4c565b600060066000848152602001908152602001600020805461174d90612dfe565b80601f016020809104026020016040519081016040528092919081815260200182805461177990612dfe565b80156117c65780601f1061179b576101008083540402835291602001916117c6565b820191906000526020600020905b8154815290600101906020018083116117a957829003601f168201915b5050505050905060006117d7611c9f565b905060008151036117ec57819250505061182f565b600082511115611821578082604051602001611809929190613a8e565b6040516020818303038152906040529250505061182f565b61182a84611cb6565b925050505b919050565b6000634906490660e01b7bffffffffffffffffffffffffffffffffffffffffffffffffffffffff1916827bffffffffffffffffffffffffffffffffffffffffffffffffffffffff1916148061188e575061188d82611d1e565b5b9050919050565b60008073ffffffffffffffffffffffffffffffffffffffff166118b7836112e6565b73ffffffffffffffffffffffffffffffffffffffff1614159050919050565b600073ffffffffffffffffffffffffffffffffffffffff168473ffffffffffffffffffffffffffffffffffffffff1614611945576040517f08c379a000000000000000000000000000000000000000000000000000000000815260040161193c90613afe565b60405180910390fd5b61195184848484611e00565b50505050565b50505050565b6119678383611f5e565b6119746000848484611b18565b6119b3576040517f08c379a00000000000000000000000000000000000000000000000000000000081526004016119aa90613a6e565b60405180910390fd5b505050565b6060600082036119ff576040518060400160405280600181526020017f30000000000000000000000000000000000000000000000000000000000000008152509050611b13565b600082905060005b60008214611a31578080611a1a90613b4d565b915050600a82611a2a9190613bc4565b9150611a07565b60008167ffffffffffffffff811115611a4d57611a4c612be1565b5b6040519080825280601f01601f191660200182016040528015611a7f5781602001600182028036833780820191505090505b5090505b60008514611b0c57600182611a989190613bf5565b9150600a85611aa79190613c29565b6030611ab39190613c5a565b60f81b818381518110611ac957611ac8613109565b5b60200101907effffffffffffffffffffffffffffffffffffffffffffffffffffffffffffff1916908160001a905350600a85611b059190613bc4565b9450611a83565b8093505050505b919050565b6000611b398473ffffffffffffffffffffffffffffffffffffffff1661217b565b15611c92578373ffffffffffffffffffffffffffffffffffffffff1663150b7a02611b62610e97565b8786866040518563ffffffff1660e01b8152600401611b849493929190613ce3565b6020604051808303816000875af1925050508015611bc057506040513d601f19601f82011682018060405250810190611bbd9190613d44565b60015b611c42573d8060008114611bf0576040519150601f19603f3d011682016040523d82523d6000602084013e611bf5565b606091505b506000815103611c3a576040517f08c379a0000000000000000000000000000000000000000000000000000000008152600401611c3190613a6e565b60405180910390fd5b805181602001fd5b63150b7a0260e01b7bffffffffffffffffffffffffffffffffffffffffffffffffffffffff1916817bffffffffffffffffffffffffffffffffffffffffffffffffffffffff191614915050611c97565b600190505b949350505050565b606060405180602001604052806000815250905090565b6060611cc182610e4c565b6000611ccb611c9f565b90506000815111611ceb5760405180602001604052806000815250611d16565b80611cf58461219e565b604051602001611d06929190613a8e565b6040516020818303038152906040525b915050919050565b60007f80ac58cd000000000000000000000000000000000000000000000000000000007bffffffffffffffffffffffffffffffffffffffffffffffffffffffff1916827bffffffffffffffffffffffffffffffffffffffffffffffffffffffff19161480611de957507f5b5e139f000000000000000000000000000000000000000000000000000000007bffffffffffffffffffffffffffffffffffffffffffffffffffffffff1916827bffffffffffffffffffffffffffffffffffffffffffffffffffffffff1916145b80611df95750611df88261226c565b5b9050919050565b611e0c848484846122d6565b6001811115611e50576040517f08c379a0000000000000000000000000000000000000000000000000000000008152600401611e4790613de3565b60405180910390fd5b6000829050600073ffffffffffffffffffffffffffffffffffffffff168573ffffffffffffffffffffffffffffffffffffffff1603611e9757611e92816122dc565b611ed6565b8373ffffffffffffffffffffffffffffffffffffffff168573ffffffffffffffffffffffffffffffffffffffff1614611ed557611ed48582612325565b5b5b600073ffffffffffffffffffffffffffffffffffffffff168473ffffffffffffffffffffffffffffffffffffffff1603611f1857611f1381612492565b611f57565b8473ffffffffffffffffffffffffffffffffffffffff168473ffffffffffffffffffffffffffffffffffffffff1614611f5657611f558482612563565b5b5b5050505050565b600073ffffffffffffffffffffffffffffffffffffffff168273ffffffffffffffffffffffffffffffffffffffff1603611fcd576040517f08c379a0000000000000000000000000000000000000000000000000000000008152600401611fc490613e4f565b60405180910390fd5b611fd681611895565b15612016576040517f08c379a000000000000000000000000000000000000000000000000000000000815260040161200d90613ebb565b60405180910390fd5b6120246000838360016118d6565b61202d81611895565b1561206d576040517f08c379a000000000000000000000000000000000000000000000000000000000815260040161206490613ebb565b60405180910390fd5b6001600360008473ffffffffffffffffffffffffffffffffffffffff1673ffffffffffffffffffffffffffffffffffffffff16815260200190815260200160002060008282540192505081905550816002600083815260200190815260200160002060006101000a81548173ffffffffffffffffffffffffffffffffffffffff021916908373ffffffffffffffffffffffffffffffffffffffff160217905550808273ffffffffffffffffffffffffffffffffffffffff16600073ffffffffffffffffffffffffffffffffffffffff167fddf252ad1be2c89b69c2b068fc378daa952ba7f163c4a11628f55a4df523b3ef60405160405180910390a4612177600083836001611957565b5050565b6000808273ffffffffffffffffffffffffffffffffffffffff163b119050919050565b6060600060016121ad846125e2565b01905060008167ffffffffffffffff8111156121cc576121cb612be1565b5b6040519080825280601f01601f1916602001820160405280156121fe5781602001600182028036833780820191505090505b509050600082602001820190505b600115612261578080600190039150507f3031323334353637383961626364656600000000000000000000000000000000600a86061a8153600a858161225557612254613b95565b5b0494506000850361220c575b819350505050919050565b60007f01ffc9a7000000000000000000000000000000000000000000000000000000007bffffffffffffffffffffffffffffffffffffffffffffffffffffffff1916827bffffffffffffffffffffffffffffffffffffffffffffffffffffffff1916149050919050565b50505050565b600980549050600a600083815260200190815260200160002081905550600981908060018154018082558091505060019003906000526020600020016000909190919091505550565b6000600161233284610883565b61233c9190613bf5565b9050600060086000848152602001908152602001600020549050818114612421576000600760008673ffffffffffffffffffffffffffffffffffffffff1673ffffffffffffffffffffffffffffffffffffffff168152602001908152602001600020600084815260200190815260200160002054905080600760008773ffffffffffffffffffffffffffffffffffffffff1673ffffffffffffffffffffffffffffffffffffffff168152602001908152602001600020600084815260200190815260200160002081905550816008600083815260200190815260200160002081905550505b6008600084815260200190815260200160002060009055600760008573ffffffffffffffffffffffffffffffffffffffff1673ffffffffffffffffffffffffffffffffffffffff16815260200190815260200160002060008381526020019081526020016000206000905550505050565b600060016009805490506124a69190613bf5565b90506000600a60008481526020019081526020016000205490506000600983815481106124d6576124d5613109565b5b9060005260206000200154905080600983815481106124f8576124f7613109565b5b906000526020600020018190555081600a600083815260200190815260200160002081905550600a600085815260200190815260200160002060009055600980548061254757612546613edb565b5b6001900381819060005260206000200160009055905550505050565b600061256e83610883565b905081600760008573ffffffffffffffffffffffffffffffffffffffff1673ffffffffffffffffffffffffffffffffffffffff168152602001908152602001600020600083815260200190815260200160002081905550806008600084815260200190815260200160002081905550505050565b600080600090507a184f03e93ff9f4daa797ed6e38ed64bf6a1f0100000000000000008310612640577a184f03e93ff9f4daa797ed6e38ed64bf6a1f010000000000000000838161263657612635613b95565b5b0492506040810190505b6d04ee2d6d415b85acef8100000000831061267d576d04ee2d6d415b85acef8100000000838161267357612672613b95565b5b0492506020810190505b662386f26fc1000083106126ac57662386f26fc1000083816126a2576126a1613b95565b5b0492506010810190505b6305f5e10083106126d5576305f5e10083816126cb576126ca613b95565b5b0492506008810190505b61271083106126fa5761271083816126f0576126ef613b95565b5b0492506004810190505b6064831061271d576064838161271357612712613b95565b5b0492506002810190505b600a831061272c576001810190505b80915050919050565b6000604051905090565b600080fd5b600080fd5b60007fffffffff0000000000000000000000000000000000000000000000000000000082169050919050565b61277e81612749565b811461278957600080fd5b50565b60008135905061279b81612775565b92915050565b6000602082840312156127b7576127b661273f565b5b60006127c58482850161278c565b91505092915050565b60008115159050919050565b6127e3816127ce565b82525050565b60006020820190506127fe60008301846127da565b92915050565b600081519050919050565b600082825260208201905092915050565b60005b8381101561283e578082015181840152602081019050612823565b60008484015250505050565b6000601f19601f8301169050919050565b600061286682612804565b612870818561280f565b9350612880818560208601612820565b6128898161284a565b840191505092915050565b600060208201905081810360008301526128ae818461285b565b905092915050565b6000819050919050565b6128c9816128b6565b81146128d457600080fd5b50565b6000813590506128e6816128c0565b92915050565b6000602082840312156129025761290161273f565b5b6000612910848285016128d7565b91505092915050565b600073ffffffffffffffffffffffffffffffffffffffff82169050919050565b600061294482612919565b9050919050565b61295481612939565b82525050565b600060208201905061296f600083018461294b565b92915050565b61297e81612939565b811461298957600080fd5b50565b60008135905061299b81612975565b92915050565b600080604083850312156129b8576129b761273f565b5b60006129c68582860161298c565b92505060206129d7858286016128d7565b9150509250929050565b6129ea816128b6565b82525050565b6000602082019050612a0560008301846129e1565b92915050565b600080600060608486031215612a2457612a2361273f565b5b6000612a328682870161298c565b9350506020612a438682870161298c565b9250506040612a54868287016128d7565b9150509250925092565b600060208284031215612a7457612a7361273f565b5b6000612a828482850161298c565b91505092915050565b600081519050919050565b600082825260208201905092915050565b6000819050602082019050919050565b612ac0816128b6565b82525050565b6000612ad28383612ab7565b60208301905092915050565b6000602082019050919050565b6000612af682612a8b565b612b008185612a96565b9350612b0b83612aa7565b8060005b83811015612b3c578151612b238882612ac6565b9750612b2e83612ade565b925050600181019050612b0f565b5085935050505092915050565b60006020820190508181036000830152612b638184612aeb565b905092915050565b612b74816127ce565b8114612b7f57600080fd5b50565b600081359050612b9181612b6b565b92915050565b60008060408385031215612bae57612bad61273f565b5b6000612bbc8582860161298c565b9250506020612bcd85828601612b82565b9150509250929050565b600080fd5b600080fd5b7f4e487b7100000000000000000000000000000000000000000000000000000000600052604160045260246000fd5b612c198261284a565b810181811067ffffffffffffffff82111715612c3857612c37612be1565b5b80604052505050565b6000612c4b612735565b9050612c578282612c10565b919050565b600067ffffffffffffffff821115612c7757612c76612be1565b5b612c808261284a565b9050602081019050919050565b82818337600083830152505050565b6000612caf612caa84612c5c565b612c41565b905082815260208101848484011115612ccb57612cca612bdc565b5b612cd6848285612c8d565b509392505050565b600082601f830112612cf357612cf2612bd7565b5b8135612d03848260208601612c9c565b91505092915050565b60008060008060808587031215612d2657612d2561273f565b5b6000612d348782880161298c565b9450506020612d458782880161298c565b9350506040612d56878288016128d7565b925050606085013567ffffffffffffffff811115612d7757612d76612744565b5b612d8387828801612cde565b91505092959194509250565b60008060408385031215612da657612da561273f565b5b6000612db48582860161298c565b9250506020612dc58582860161298c565b9150509250929050565b7f4e487b7100000000000000000000000000000000000000000000000000000000600052602260045260246000fd5b60006002820490506001821680612e1657607f821691505b602082108103612e2957612e28612dcf565b5b50919050565b7f4552433732313a20617070726f76616c20746f2063757272656e74206f776e6560008201527f7200000000000000000000000000000000000000000000000000000000000000602082015250565b6000612e8b60218361280f565b9150612e9682612e2f565b604082019050919050565b60006020820190508181036000830152612eba81612e7e565b9050919050565b7f4552433732313a20617070726f76652063616c6c6572206973206e6f7420746f60008201527f6b656e206f776e6572206f7220617070726f76656420666f7220616c6c000000602082015250565b6000612f1d603d8361280f565b9150612f2882612ec1565b604082019050919050565b60006020820190508181036000830152612f4c81612f10565b9050919050565b7f4552433732313a2063616c6c6572206973206e6f7420746f6b656e206f776e6560008201527f72206f7220617070726f76656400000000000000000000000000000000000000602082015250565b6000612faf602d8361280f565b9150612fba82612f53565b604082019050919050565b60006020820190508181036000830152612fde81612fa2565b9050919050565b7f455243373231456e756d657261626c653a206f776e657220696e646578206f7560008201527f74206f6620626f756e6473000000000000000000000000000000000000000000602082015250565b6000613041602b8361280f565b915061304c82612fe5565b604082019050919050565b6000602082019050818103600083015261307081613034565b9050919050565b7f455243373231456e756d657261626c653a20676c6f62616c20696e646578206f60008201527f7574206f6620626f756e64730000000000000000000000000000000000000000602082015250565b60006130d3602c8361280f565b91506130de82613077565b604082019050919050565b60006020820190508181036000830152613102816130c6565b9050919050565b7f4e487b7100000000000000000000000000000000000000000000000000000000600052603260045260246000fd5b7f4552433732313a20696e76616c696420746f6b656e2049440000000000000000600082015250565b600061316e60188361280f565b915061317982613138565b602082019050919050565b6000602082019050818103600083015261319d81613161565b9050919050565b7f4552433732313a2061646472657373207a65726f206973206e6f74206120766160008201527f6c6964206f776e65720000000000000000000000000000000000000000000000602082015250565b600061320060298361280f565b915061320b826131a4565b604082019050919050565b6000602082019050818103600083015261322f816131f3565b9050919050565b7f416c7265616479206d696e746564000000000000000000000000000000000000600082015250565b600061326c600e8361280f565b915061327782613236565b602082019050919050565b6000602082019050818103600083015261329b8161325f565b9050919050565b60008160601b9050919050565b60006132ba826132a2565b9050919050565b60006132cc826132af565b9050919050565b6132e46132df82612939565b6132c1565b82525050565b6000819050919050565b613305613300826128b6565b6132ea565b82525050565b600061331782856132d3565b60148201915061332782846132f4565b6020820191508190509392505050565b7f4f776e61626c653a206e6577206f776e657220697320746865207a65726f206160008201527f6464726573730000000000000000000000000000000000000000000000000000602082015250565b600061339360268361280f565b915061339e82613337565b604082019050919050565b600060208201905081810360008301526133c281613386565b9050919050565b7f4552433732313a207472616e736665722066726f6d20696e636f72726563742060008201527f6f776e6572000000000000000000000000000000000000000000000000000000602082015250565b600061342560258361280f565b9150613430826133c9565b604082019050919050565b6000602082019050818103600083015261345481613418565b9050919050565b7f4552433732313a207472616e7366657220746f20746865207a65726f2061646460008201527f7265737300000000000000000000000000000000000000000000000000000000602082015250565b60006134b760248361280f565b91506134c28261345b565b604082019050919050565b600060208201905081810360008301526134e6816134aa565b9050919050565b7f4f776e61626c653a2063616c6c6572206973206e6f7420746865206f776e6572600082015250565b600061352360208361280f565b915061352e826134ed565b602082019050919050565b6000602082019050818103600083015261355281613516565b9050919050565b600081905092915050565b7f68747470733a2f2f636869696b6f2d682e6769746875622e696f2f7362745f7360008201527f616d706c652f6d657461646174612f0000000000000000000000000000000000602082015250565b60006135c0602f83613559565b91506135cb82613564565b602f82019050919050565b60006135e182612804565b6135eb8185613559565b93506135fb818560208601612820565b80840191505092915050565b7f2e6a736f6e000000000000000000000000000000000000000000000000000000600082015250565b600061363d600583613559565b915061364882613607565b600582019050919050565b600061365e826135b3565b915061366a82846135d6565b915061367582613630565b915081905092915050565b7f45524337323155524953746f726167653a2055524920736574206f66206e6f6e60008201527f6578697374656e7420746f6b656e000000000000000000000000000000000000602082015250565b60006136dc602e8361280f565b91506136e782613680565b604082019050919050565b6000602082019050818103600083015261370b816136cf565b9050919050565b60008190508160005260206000209050919050565b60006020601f8301049050919050565b600082821b905092915050565b6000600883026137747fffffffffffffffffffffffffffffffffffffffffffffffffffffffffffffffff82613737565b61377e8683613737565b95508019841693508086168417925050509392505050565b6000819050919050565b60006137bb6137b66137b1846128b6565b613796565b6128b6565b9050919050565b6000819050919050565b6137d5836137a0565b6137e96137e1826137c2565b848454613744565b825550505050565b600090565b6137fe6137f1565b6138098184846137cc565b505050565b5b8181101561382d576138226000826137f6565b60018101905061380f565b5050565b601f8211156138725761384381613712565b61384c84613727565b8101602085101561385b578190505b61386f61386785613727565b83018261380e565b50505b505050565b600082821c905092915050565b600061389560001984600802613877565b1980831691505092915050565b60006138ae8383613884565b9150826002028217905092915050565b6138c782612804565b67ffffffffffffffff8111156138e0576138df612be1565b5b6138ea8254612dfe565b6138f5828285613831565b600060209050601f8311600181146139285760008415613916578287015190505b61392085826138a2565b865550613988565b601f19841661393686613712565b60005b8281101561395e57848901518255600182019150602085019450602081019050613939565b8683101561397b5784890151613977601f891682613884565b8355505b6001600288020188555050505b505050505050565b7f4552433732313a20617070726f766520746f2063616c6c657200000000000000600082015250565b60006139c660198361280f565b91506139d182613990565b602082019050919050565b600060208201905081810360008301526139f5816139b9565b9050919050565b7f4552433732313a207472616e7366657220746f206e6f6e20455243373231526560008201527f63656976657220696d706c656d656e7465720000000000000000000000000000602082015250565b6000613a5860328361280f565b9150613a63826139fc565b604082019050919050565b60006020820190508181036000830152613a8781613a4b565b9050919050565b6000613a9a82856135d6565b9150613aa682846135d6565b91508190509392505050565b7f4e6f6e2d7472616e7366657261626c6500000000000000000000000000000000600082015250565b6000613ae860108361280f565b9150613af382613ab2565b602082019050919050565b60006020820190508181036000830152613b1781613adb565b9050919050565b7f4e487b7100000000000000000000000000000000000000000000000000000000600052601160045260246000fd5b6000613b58826128b6565b91507fffffffffffffffffffffffffffffffffffffffffffffffffffffffffffffffff8203613b8a57613b89613b1e565b5b600182019050919050565b7f4e487b7100000000000000000000000000000000000000000000000000000000600052601260045260246000fd5b6000613bcf826128b6565b9150613bda836128b6565b925082613bea57613be9613b95565b5b828204905092915050565b6000613c00826128b6565b9150613c0b836128b6565b9250828203905081811115613c2357613c22613b1e565b5b92915050565b6000613c34826128b6565b9150613c3f836128b6565b925082613c4f57613c4e613b95565b5b828206905092915050565b6000613c65826128b6565b9150613c70836128b6565b9250828201905080821115613c8857613c87613b1e565b5b92915050565b600081519050919050565b600082825260208201905092915050565b6000613cb582613c8e565b613cbf8185613c99565b9350613ccf818560208601612820565b613cd88161284a565b840191505092915050565b6000608082019050613cf8600083018761294b565b613d05602083018661294b565b613d1260408301856129e1565b8181036060830152613d248184613caa565b905095945050505050565b600081519050613d3e81612775565b92915050565b600060208284031215613d5a57613d5961273f565b5b6000613d6884828501613d2f565b91505092915050565b7f455243373231456e756d657261626c653a20636f6e736563757469766520747260008201527f616e7366657273206e6f7420737570706f727465640000000000000000000000602082015250565b6000613dcd60358361280f565b9150613dd882613d71565b604082019050919050565b60006020820190508181036000830152613dfc81613dc0565b9050919050565b7f4552433732313a206d696e7420746f20746865207a65726f2061646472657373600082015250565b6000613e3960208361280f565b9150613e4482613e03565b602082019050919050565b60006020820190508181036000830152613e6881613e2c565b9050919050565b7f4552433732313a20746f6b656e20616c7265616479206d696e74656400000000600082015250565b6000613ea5601c8361280f565b9150613eb082613e6f565b602082019050919050565b60006020820190508181036000830152613ed481613e98565b9050919050565b7f4e487b7100000000000000000000000000000000000000000000000000000000600052603160045260246000fdfea2646970667358221220e82ac9e5c5ef22193beb192450e6937399d05122017c217a793713ca9d0ecae764736f6c634300081c0033",
  "linkReferences": {},
  "deployedLinkReferences": {}
}